{
  "_format": "hh-sol-artifact-1",
  "contractName": "IDeyVex",
  "sourceName": "contracts/IDeyVex.sol",
  "abi": [
    {
      "anonymous": false,
      "inputs": [
        {
          "indexed": false,
          "internalType": "string",
          "name": "body",
          "type": "string"
        },
        {
          "indexed": true,
          "internalType": "address",
          "name": "author",
          "type": "address"
        }
      ],
      "name": "CommentCreated",
      "type": "event"
    },
    {
      "anonymous": false,
      "inputs": [
        {
          "indexed": false,
          "internalType": "uint256",
          "name": "id",
          "type": "uint256"
        },
        {
          "indexed": false,
          "internalType": "string",
          "name": "body",
          "type": "string"
        },
        {
          "indexed": true,
          "internalType": "address",
          "name": "author",
          "type": "address"
        }
      ],
      "name": "PostCreated",
      "type": "event"
    },
    {
      "inputs": [
        {
          "internalType": "uint256",
          "name": "_id",
          "type": "uint256"
        },
        {
          "internalType": "string",
          "name": "_body",
          "type": "string"
        }
      ],
      "name": "addComment",
      "outputs": [],
      "stateMutability": "nonpayable",
      "type": "function"
    },
    {
      "inputs": [
        {
          "internalType": "string",
          "name": "_body",
          "type": "string"
        }
      ],
      "name": "createPost",
      "outputs": [],
      "stateMutability": "nonpayable",
      "type": "function"
    },
    {
      "inputs": [
        {
          "internalType": "uint256",
          "name": "_id",
          "type": "uint256"
        }
      ],
      "name": "getPost",
      "outputs": [
        {
          "components": [
            {
              "internalType": "uint256",
              "name": "id",
              "type": "uint256"
            },
            {
              "internalType": "string",
              "name": "body",
              "type": "string"
            },
            {
              "internalType": "address",
              "name": "author",
              "type": "address"
            },
            {
              "internalType": "uint256",
              "name": "vex",
              "type": "uint256"
            },
            {
              "internalType": "uint256",
              "name": "novex",
              "type": "uint256"
            },
            {
              "components": [
                {
                  "internalType": "string",
                  "name": "body",
                  "type": "string"
                },
                {
                  "internalType": "address",
                  "name": "author",
                  "type": "address"
                }
              ],
              "internalType": "struct IDeyVex.Comment[]",
              "name": "comments",
              "type": "tuple[]"
            }
          ],
          "internalType": "struct IDeyVex.Post",
          "name": "",
          "type": "tuple"
        }
      ],
      "stateMutability": "view",
      "type": "function"
    },
    {
      "inputs": [],
      "name": "getPosts",
      "outputs": [
        {
          "components": [
            {
              "internalType": "uint256",
              "name": "id",
              "type": "uint256"
            },
            {
              "internalType": "string",
              "name": "body",
              "type": "string"
            },
            {
              "internalType": "address",
              "name": "author",
              "type": "address"
            },
            {
              "internalType": "uint256",
              "name": "vex",
              "type": "uint256"
            },
            {
              "internalType": "uint256",
              "name": "novex",
              "type": "uint256"
            },
            {
              "components": [
                {
                  "internalType": "string",
                  "name": "body",
                  "type": "string"
                },
                {
                  "internalType": "address",
                  "name": "author",
                  "type": "address"
                }
              ],
              "internalType": "struct IDeyVex.Comment[]",
              "name": "comments",
              "type": "tuple[]"
            }
          ],
          "internalType": "struct IDeyVex.Post[]",
          "name": "",
          "type": "tuple[]"
        }
      ],
      "stateMutability": "view",
      "type": "function"
    },
    {
      "inputs": [
        {
          "internalType": "uint256",
          "name": "_id",
          "type": "uint256"
        }
      ],
      "name": "postComments",
      "outputs": [
        {
          "components": [
            {
              "internalType": "string",
              "name": "body",
              "type": "string"
            },
            {
              "internalType": "address",
              "name": "author",
              "type": "address"
            }
          ],
          "internalType": "struct IDeyVex.Comment[]",
          "name": "",
          "type": "tuple[]"
        }
      ],
      "stateMutability": "view",
      "type": "function"
    },
    {
      "inputs": [],
      "name": "postCount",
      "outputs": [
        {
          "internalType": "uint256",
          "name": "",
          "type": "uint256"
        }
      ],
      "stateMutability": "view",
      "type": "function"
    },
    {
      "inputs": [
        {
          "internalType": "uint256",
          "name": "",
          "type": "uint256"
        }
      ],
      "name": "postIds",
      "outputs": [
        {
          "internalType": "uint256",
          "name": "",
          "type": "uint256"
        }
      ],
      "stateMutability": "view",
      "type": "function"
    },
    {
      "inputs": [
        {
          "internalType": "uint256",
          "name": "",
          "type": "uint256"
        }
      ],
      "name": "posts",
      "outputs": [
        {
          "internalType": "uint256",
          "name": "id",
          "type": "uint256"
        },
        {
          "internalType": "string",
          "name": "body",
          "type": "string"
        },
        {
          "internalType": "address",
          "name": "author",
          "type": "address"
        },
        {
          "internalType": "uint256",
          "name": "vex",
          "type": "uint256"
        },
        {
          "internalType": "uint256",
          "name": "novex",
          "type": "uint256"
        }
      ],
      "stateMutability": "view",
      "type": "function"
    }
  ],
  "bytecode": "0x60806040526000805534801561001457600080fd5b50611919806100246000396000f3fe608060405234801561001057600080fd5b50600436106100885760003560e01c806341f3004a1161005b57806341f3004a1461013f57806350cde8ef1461015d578063aa7e56831461018d578063c7303c61146101a957610088565b80630b1e7f831461008d57806311341d51146100c157806317906c2e146100f157806340731c241461010f575b600080fd5b6100a760048036038101906100a29190610d10565b6101c5565b6040516100b8959493929190610e1d565b60405180910390f35b6100db60048036038101906100d69190610d10565b6102a3565b6040516100e89190610fcf565b60405180910390f35b6100f9610400565b6040516101069190610ff1565b60405180910390f35b61012960048036038101906101249190610d10565b610406565b6040516101369190611131565b60405180910390f35b610147610680565b60405161015491906112a5565b60405180910390f35b61017760048036038101906101729190610d10565b6109ac565b6040516101849190610ff1565b60405180910390f35b6101a760048036038101906101a291906113fc565b6109d0565b005b6101c360048036038101906101be9190611458565b610b56565b005b60016020528060005260406000206000915090508060000154908060010180546101ee906114d0565b80601f016020809104026020016040519081016040528092919081815260200182805461021a906114d0565b80156102675780601f1061023c57610100808354040283529160200191610267565b820191906000526020600020905b81548152906001019060200180831161024a57829003601f168201915b5050505050908060020160009054906101000a900473ffffffffffffffffffffffffffffffffffffffff16908060030154908060040154905085565b606060016000838152602001908152602001600020600501805480602002602001604051908101604052809291908181526020016000905b828210156103f5578382906000526020600020906002020160405180604001604052908160008201805461030e906114d0565b80601f016020809104026020016040519081016040528092919081815260200182805461033a906114d0565b80156103875780601f1061035c57610100808354040283529160200191610387565b820191906000526020600020905b81548152906001019060200180831161036a57829003601f168201915b505050505081526020016001820160009054906101000a900473ffffffffffffffffffffffffffffffffffffffff1673ffffffffffffffffffffffffffffffffffffffff1673ffffffffffffffffffffffffffffffffffffffff1681525050815260200190600101906102db565b505050509050919050565b60005481565b61040e610c7a565b600160008381526020019081526020016000206040518060c001604052908160008201548152602001600182018054610446906114d0565b80601f0160208091040260200160405190810160405280929190818152602001828054610472906114d0565b80156104bf5780601f10610494576101008083540402835291602001916104bf565b820191906000526020600020905b8154815290600101906020018083116104a257829003601f168201915b505050505081526020016002820160009054906101000a900473ffffffffffffffffffffffffffffffffffffffff1673ffffffffffffffffffffffffffffffffffffffff1673ffffffffffffffffffffffffffffffffffffffff168152602001600382015481526020016004820154815260200160058201805480602002602001604051908101604052809291908181526020016000905b82821015610671578382906000526020600020906002020160405180604001604052908160008201805461058a906114d0565b80601f01602080910402602001604051908101604052809291908181526020018280546105b6906114d0565b80156106035780601f106105d857610100808354040283529160200191610603565b820191906000526020600020905b8154815290600101906020018083116105e657829003601f168201915b505050505081526020016001820160009054906101000a900473ffffffffffffffffffffffffffffffffffffffff1673ffffffffffffffffffffffffffffffffffffffff1673ffffffffffffffffffffffffffffffffffffffff168152505081526020019060010190610557565b50505050815250509050919050565b60606000600280549050905060008167ffffffffffffffff8111156106a8576106a76112d1565b5b6040519080825280602002602001820160405280156106e157816020015b6106ce610c7a565b8152602001906001900390816106c65790505b50905060005b828110156109a357600160006002838154811061070757610706611501565b5b906000526020600020015481526020019081526020016000206040518060c001604052908160008201548152602001600182018054610745906114d0565b80601f0160208091040260200160405190810160405280929190818152602001828054610771906114d0565b80156107be5780601f10610793576101008083540402835291602001916107be565b820191906000526020600020905b8154815290600101906020018083116107a157829003601f168201915b505050505081526020016002820160009054906101000a900473ffffffffffffffffffffffffffffffffffffffff1673ffffffffffffffffffffffffffffffffffffffff1673ffffffffffffffffffffffffffffffffffffffff168152602001600382015481526020016004820154815260200160058201805480602002602001604051908101604052809291908181526020016000905b828210156109705783829060005260206000209060020201604051806040016040529081600082018054610889906114d0565b80601f01602080910402602001604051908101604052809291908181526020018280546108b5906114d0565b80156109025780601f106108d757610100808354040283529160200191610902565b820191906000526020600020905b8154815290600101906020018083116108e557829003601f168201915b505050505081526020016001820160009054906101000a900473ffffffffffffffffffffffffffffffffffffffff1673ffffffffffffffffffffffffffffffffffffffff1673ffffffffffffffffffffffffffffffffffffffff168152505081526020019060010190610856565b505050508152505082828151811061098b5761098a611501565b5b602002602001018190525080806001019150506106e7565b50809250505090565b600281815481106109bc57600080fd5b906000526020600020016000915090505481565b60006001600084815260200190815260200160002060010180546109f3906114d0565b905011610a35576040517f08c379a0000000000000000000000000000000000000000000000000000000008152600401610a2c9061157c565b60405180910390fd5b600060405180604001604052808381526020013373ffffffffffffffffffffffffffffffffffffffff168152509050600160008481526020019081526020016000206005018190806001815401808255809150506001900390600052602060002090600202016000909190919091506000820151816000019081610ab99190611748565b5060208201518160010160006101000a81548173ffffffffffffffffffffffffffffffffffffffff021916908373ffffffffffffffffffffffffffffffffffffffff16021790555050503373ffffffffffffffffffffffffffffffffffffffff167feca205e3418e42690387450511bd5ad77546665ec606e20284f256c21cef166483604051610b49919061181a565b60405180910390a2505050565b600080815480929190610b689061186b565b9190505550600060016000805481526020019081526020016000209050600054816000018190555081816001019081610ba19190611748565b50338160020160006101000a81548173ffffffffffffffffffffffffffffffffffffffff021916908373ffffffffffffffffffffffffffffffffffffffff1602179055506000816003018190555060008160040181905550600260005490806001815401808255809150506001900390600052602060002001600090919091909150553373ffffffffffffffffffffffffffffffffffffffff167f618e7c0a5a81623326df1e96b95cff24f2c4577dee149d58c750693fc1059a1460005484604051610c6e9291906118b3565b60405180910390a25050565b6040518060c001604052806000815260200160608152602001600073ffffffffffffffffffffffffffffffffffffffff1681526020016000815260200160008152602001606081525090565b6000604051905090565b600080fd5b600080fd5b6000819050919050565b610ced81610cda565b8114610cf857600080fd5b50565b600081359050610d0a81610ce4565b92915050565b600060208284031215610d2657610d25610cd0565b5b6000610d3484828501610cfb565b91505092915050565b610d4681610cda565b82525050565b600081519050919050565b600082825260208201905092915050565b60005b83811015610d86578082015181840152602081019050610d6b565b60008484015250505050565b6000601f19601f8301169050919050565b6000610dae82610d4c565b610db88185610d57565b9350610dc8818560208601610d68565b610dd181610d92565b840191505092915050565b600073ffffffffffffffffffffffffffffffffffffffff82169050919050565b6000610e0782610ddc565b9050919050565b610e1781610dfc565b82525050565b600060a082019050610e326000830188610d3d565b8181036020830152610e448187610da3565b9050610e536040830186610e0e565b610e606060830185610d3d565b610e6d6080830184610d3d565b9695505050505050565b600081519050919050565b600082825260208201905092915050565b6000819050602082019050919050565b600082825260208201905092915050565b6000610ebf82610d4c565b610ec98185610ea3565b9350610ed9818560208601610d68565b610ee281610d92565b840191505092915050565b610ef681610dfc565b82525050565b60006040830160008301518482036000860152610f198282610eb4565b9150506020830151610f2e6020860182610eed565b508091505092915050565b6000610f458383610efc565b905092915050565b6000602082019050919050565b6000610f6582610e77565b610f6f8185610e82565b935083602082028501610f8185610e93565b8060005b85811015610fbd5784840389528151610f9e8582610f39565b9450610fa983610f4d565b925060208a01995050600181019050610f85565b50829750879550505050505092915050565b60006020820190508181036000830152610fe98184610f5a565b905092915050565b60006020820190506110066000830184610d3d565b92915050565b61101581610cda565b82525050565b600082825260208201905092915050565b600061103782610e77565b611041818561101b565b93508360208202850161105385610e93565b8060005b8581101561108f57848403895281516110708582610f39565b945061107b83610f4d565b925060208a01995050600181019050611057565b50829750879550505050505092915050565b600060c0830160008301516110b9600086018261100c565b50602083015184820360208601526110d18282610eb4565b91505060408301516110e66040860182610eed565b5060608301516110f9606086018261100c565b50608083015161110c608086018261100c565b5060a083015184820360a0860152611124828261102c565b9150508091505092915050565b6000602082019050818103600083015261114b81846110a1565b905092915050565b600081519050919050565b600082825260208201905092915050565b6000819050602082019050919050565b600060c083016000830151611197600086018261100c565b50602083015184820360208601526111af8282610eb4565b91505060408301516111c46040860182610eed565b5060608301516111d7606086018261100c565b5060808301516111ea608086018261100c565b5060a083015184820360a0860152611202828261102c565b9150508091505092915050565b600061121b838361117f565b905092915050565b6000602082019050919050565b600061123b82611153565b611245818561115e565b9350836020820285016112578561116f565b8060005b858110156112935784840389528151611274858261120f565b945061127f83611223565b925060208a0199505060018101905061125b565b50829750879550505050505092915050565b600060208201905081810360008301526112bf8184611230565b905092915050565b600080fd5b600080fd5b7f4e487b7100000000000000000000000000000000000000000000000000000000600052604160045260246000fd5b61130982610d92565b810181811067ffffffffffffffff82111715611328576113276112d1565b5b80604052505050565b600061133b610cc6565b90506113478282611300565b919050565b600067ffffffffffffffff821115611367576113666112d1565b5b61137082610d92565b9050602081019050919050565b82818337600083830152505050565b600061139f61139a8461134c565b611331565b9050828152602081018484840111156113bb576113ba6112cc565b5b6113c684828561137d565b509392505050565b600082601f8301126113e3576113e26112c7565b5b81356113f384826020860161138c565b91505092915050565b6000806040838503121561141357611412610cd0565b5b600061142185828601610cfb565b925050602083013567ffffffffffffffff81111561144257611441610cd5565b5b61144e858286016113ce565b9150509250929050565b60006020828403121561146e5761146d610cd0565b5b600082013567ffffffffffffffff81111561148c5761148b610cd5565b5b611498848285016113ce565b91505092915050565b7f4e487b7100000000000000000000000000000000000000000000000000000000600052602260045260246000fd5b600060028204905060018216806114e857607f821691505b6020821081036114fb576114fa6114a1565b5b50919050565b7f4e487b7100000000000000000000000000000000000000000000000000000000600052603260045260246000fd5b7f506f737420646f6573206e6f7420657869737400000000000000000000000000600082015250565b6000611566601383610d57565b915061157182611530565b602082019050919050565b6000602082019050818103600083015261159581611559565b9050919050565b60008190508160005260206000209050919050565b60006020601f8301049050919050565b600082821b905092915050565b6000600883026115fe7fffffffffffffffffffffffffffffffffffffffffffffffffffffffffffffffff826115c1565b61160886836115c1565b95508019841693508086168417925050509392505050565b6000819050919050565b600061164561164061163b84610cda565b611620565b610cda565b9050919050565b6000819050919050565b61165f8361162a565b61167361166b8261164c565b8484546115ce565b825550505050565b600090565b61168861167b565b611693818484611656565b505050565b5b818110156116b7576116ac600082611680565b600181019050611699565b5050565b601f8211156116fc576116cd8161159c565b6116d6846115b1565b810160208510156116e5578190505b6116f96116f1856115b1565b830182611698565b50505b505050565b600082821c905092915050565b600061171f60001984600802611701565b1980831691505092915050565b6000611738838361170e565b9150826002028217905092915050565b61175182610d4c565b67ffffffffffffffff81111561176a576117696112d1565b5b61177482546114d0565b61177f8282856116bb565b600060209050601f8311600181146117b257600084156117a0578287015190505b6117aa858261172c565b865550611812565b601f1984166117c08661159c565b60005b828110156117e8578489015182556001820191506020850194506020810190506117c3565b868310156118055784890151611801601f89168261170e565b8355505b6001600288020188555050505b505050505050565b600060208201905081810360008301526118348184610da3565b905092915050565b7f4e487b7100000000000000000000000000000000000000000000000000000000600052601160045260246000fd5b600061187682610cda565b91507fffffffffffffffffffffffffffffffffffffffffffffffffffffffffffffffff82036118a8576118a761183c565b5b600182019050919050565b60006040820190506118c86000830185610d3d565b81810360208301526118da8184610da3565b9050939250505056fea26469706673582212200169a723d3ff2e8527c3e3bf695d1967e2f55e4e758d27ef78c3fbd41bc101a664736f6c63430008170033",
  "linkReferences": {},
  "deployedLinkReferences": {}
}